:100000000C94E0010C94FD010C94FD010C94FD0195
:100010000C94FD010C94FD010C94FD010C94FD0168
:100020000C94FD010C94BF020C94FD010C94FD0195
:100030000C94FD010C94FD010C94FD010C94FD0148
:100040000C94FD010C94FD010C94FD010C94FD0138
:100050000C94FD010C94FD010C94FD010C94FD0128
:100060000C94FD010C94FD012020204A414E464590
:10007000424D41524150524D41594A554E4A554CBC
:100080004155475345504F43544E4F564445430006
:100090000000000000000004040404040004001236
:1000A0001212000000000000051F0A1F1400000EBD
:1000B00015140E05150E0018190204081303000E7E
:1000C00012140815120D00040404000000000002C0
:1000D00004080808040200080402020204080004DC
:1000E00005160C0A1100000004041F04040000009F
:1000F00000000C0C0408000000001F0000000000BD
:10010000000000000C0C0000010204081000000EAA
:1001100011131519110E00040C040404040E000E32
:1001200011010204081F000E11010201110E00034B
:100130000509111F0101001F101E0101110E000E03
:1001400011101E11110E001F110102040808000EEB
:1001500011110E11110E000E11110F01110E0000E0
:100160000C0C000C0C00000C0C000C0C0408000122
:100170000204080402010000001F001F000000101C
:10018000080402040810000E111102040004000EFD
:1001900011171610100F000E1111111F1111001E52
:1001A00011111E11111E000E11101010110E001E43
:1001B00011111111111E001F10101E10101F001F11
:1001C00010101E101010000E11101017110E00113B
:1001D00011111F111111000E04040404040E001F5C
:1001E00001010101110E0011121418141211001056
:1001F00010101010111F00111B15111111110011F9
:10020000111915131111000E11111111110E001EEB
:1002100011111E101010000C12121A16160D001ECD
:1002200011111E141211000E11100E01110E001FDB
:10023000150404040404001111111111110E001110
:10024000111111110A04001111111515150A0011CF
:10025000110A040A11110011110A04040404001FF8
:1002600001020408101F000C08080808080C000010
:10027000100804020100000C04040404040C00042F
:100280000A1100000000000000000000001F00082C
:100290000402000000000000000D1311130D0010F7
:1002A0001016191119160000000E1110110E000180
:1002B000010D1311130D0000000E111F100F000689
:1002C00009081C0808080000000F110F011E00108B
:1002D00010101C1212120004000404040404000292
:1002E00000020202120C0010101214181412000462
:1002F0000404040404040000001E15151515000074
:10030000001C121212120000000E1111110E00003A
:10031000001E111E10100000000F110F010100003F
:100320000016191010100000000F100E011E00081A
:10033000081C08080906000000111111110F000027
:10034000001111110A04000000111515150A000012
:1003500000110A040A110000001109060418000027
:10036000001F0204081F000C12120C000000001EE7
:100370003333333333331E0C1C0C0C0C0C0C1E1E8D
:100380003303060C18313F1E3303060303331E03E9
:10039000070F1B333F03033F30303E0303331E1E62
:1003A00033303E3333331E3F3303060C1818181E08
:1003B00033331E3333331E1E3333331F03331E00D8
:1003C00011241FBECFEFD8E0DEBFCDBF11E0A0E00B
:1003D000B1E0E6EDF1E102C005900D92AE30B1075B
:1003E000D9F711E0AEE0B1E001C01D92A633B1072C
:1003F000E1F70E944C080C94E9080C9400006F92FD
:100400007F928F929F92AF92BF92CF92DF92EF92A4
:10041000FF920F931F935B016C0139014A0120E1A8
:1004200037E240E050E00E94C708CA01B90120E16C
:100430003EE040E050E00E949C087B018C01C60138
:10044000B50124E630E040E050E00E94C708E60E27
:10045000F71E081F191FC601B50124E630E040E071
:1004600050E00E94C708CA01B90124E630E040E02C
:1004700050E00E94C7082CE330E040E050E00E94CA
:100480009C08E60EF71E081F191FE0920E01F0925D
:100490000F010093100110931101C401B30124E670
:1004A00030E040E050E00E94C708CA01B90124E6EC
:1004B00030E040E050E00E94C7087B018C01AA2494
:1004C000BB24650121E00AC0E22FF0E0E050FF4FBD
:1004D0008081A80EB11CC11CD11C2F5F822F90E01F
:1004E000A0E0B0E08E159F05A007B10768F3C40136
:1004F000B30124E630E040E050E00E94C7086430D9
:1005000071058105910558F483E0E816F1040105B1
:10051000110528F00894A11CB11CC11CD11CC401F8
:10052000B30120E137E240E050E00E94C708A20E8C
:10053000B31EC41ED51EA0921201B0921301C09228
:100540001401D092150180E28093B60085E080937B
:10055000B10081E08093700017BA78948091B60062
:1005600084FDFCCF1F910F91FF90EF90DF90CF9013
:10057000BF90AF909F908F907F906F9008951F9243
:100580000F920FB60F9211242F938F939F93AF93D7
:10059000BF9380910E0190910F01A0911001B09135
:1005A00011010196A11DB11D80930E0190930F01C1
:1005B000A0931001B093110180910E0190910F0151
:1005C000A0911001B091110180589145A140B04017
:1005D000D8F010920E0110920F011092100110929B
:1005E00011018091120190911301A0911401B09119
:1005F00015010196A11DB11D809312019093130165
:10060000A0931401B0931501BF91AF919F918F9169
:100610002F910F900FBE0F901F9018959B01AC016A
:1006200080910E0190910F01A0911001B0911101E4
:10063000280F391F4A1F5B1F203881E5380781E0EA
:10064000480780E05807C0F43FC010927A0080B796
:10065000806880BFF89483B7817F866083BF83B74B
:10066000816083BF85B7806685BF8F7D85BF7894A5
:10067000889583B78E7F83BF80910E0190910F0183
:10068000A0911001B09111010097A105B105E9F603
:10069000205831454140504017C010927A0080B731
:1006A000806880BFF89483B7817F866083BF83B7FB
:1006B000816083BF85B7806685BF8F7D85BF789455
:1006C000889583B78E7F83BF80910E0190910F0133
:1006D000A0911001B091110182179307A407B507EB
:1006E000E0F2089584B18C6284B92B9A2A9A82E54B
:1006F0008CBD08958EBD0DB407FEFDCF08958EBD4F
:100700000DB407FEFDCF6EBD0DB407FEFDCF0895FD
:100710002A988EBD0DB407FEFDCF6EBD0DB407FE49
:10072000FDCF8EBD0DB407FEFDCF6EBD0DB407FE2F
:10073000FDCF8EBD0DB407FEFDCF6EBD0DB407FE1F
:10074000FDCF8EBD0DB407FEFDCF6EBD0DB407FE0F
:10075000FDCF2A9A089531E02A98FC0120E04081DB
:100760003EBD0DB407FEFDCF4EBD0DB407FEFDCF5F
:100770002F5F3896243099F72A9A3F5F01963930D7
:1007800059F7089581E060E00E94880382E060E00C
:100790000E94880383E060E00E94880384E060E0B8
:1007A0000E94880385E060E00E94880386E060E0A4
:1007B0000E94880387E060E00E94880388E060E090
:1007C0000E94880381E060E00E94880382E060E08C
:1007D0000E94880383E060E00E94880384E060E078
:1007E0000E94880385E060E00E94880386E060E064
:1007F0000E94880387E060E00E94880388E060E050
:100800000E94880381E060E00E94880382E060E04B
:100810000E94880383E060E00E94880384E060E037
:100820000E94880385E060E00E94880386E060E023
:100830000E94880387E060E00E94880388E060E00F
:100840000E948803089588EE93E028EC30E0F901D7
:100850003197F1F70197D9F78FE061E00E948803A3
:1008600088EE93E028EC30E0F9013197F1F7019739
:10087000D9F78FE060E00E9488038AE061E00E947F
:1008800088038BE067E00E9488030E94C2038CE02B
:1008900061E00E94880380E29EE428EC30E0F901E8
:1008A0003197F1F70197D9F70895E6E1F1E0119258
:1008B00081E0E633F807D9F708954F925F926F927F
:1008C0007F928F929F92AF92BF92CF92DF92EF92E0
:1008D000FF920F931F93CF93DF938A01790170E00A
:1008E000482F50E083E0440F551F8A95E1F73B0104
:1008F000600E711EE801CA5EDE4F20E030E06B0141
:100900004B01089481089108415750401DC0FD01DA
:10091000849190E00A2C02C0959587950A94E2F79D
:1009200081709070042C02C0880F991F0A94E2F71E
:10093000680F0894411C511C1196F8E04F165104A1
:1009400031F769932F5F3F4F5401A21AB30A2C1558
:100950003D0529F06881DA0144245524D8CF402F81
:10096000222733272E193F091DC01E141F045CF4D3
:10097000EA5EFE4F808190E00E2C02C0959587952F
:100980000A94E2F70DC0E114F10459F0EA5EFE4F5B
:10099000808190E0022E02C0880F991F0A94E2F72E
:1009A00080834F5FE42FF0E0E615F705F4F2DF9166
:1009B000CF911F910F91FF90EF90DF90CF90BF905C
:1009C000AF909F908F907F906F905F904F90089521
:1009D0002F923F924F925F926F927F928F929F924F
:1009E000AF92BF92CF92DF92EF92FF920F931F933D
:1009F000DF93CF93CDB7DEB7D82E362E442E522EAE
:100A0000602E7E2C9C2CCA2C2E880AE010E020E45C
:100A1000A22E2CE9B22E38C0F70111927F01F6E325
:100A2000EF16F1E0FF06C1F7832D6D2D442D50E048
:100A300098010E945D04852D6D2D462D50E0980192
:100A40000E945D04872D6D2D492D50E098010E9474
:100A50005D048C2D6D2D482D50E098010E945D04A1
:100A60008D896D2D422D50E098010E945D04C701D3
:100A700080970E94AB03C5010197F1F70150104028
:100A80008FEF0F3F180729F096E1E92E91E0F92E3C
:100A9000C3CFCF91DF911F910F91FF90EF90DF9027
:100AA000CF90BF90AF909F908F907F906F905F900E
:100AB0004F903F902F9008953F924F925F926F9288
:100AC0007F928F929F92AF92BF92CF92DF92EF92DE
:100AD000FF920F931F93DF93CF93CDB7DEB7F82E1E
:100AE000562E642E722E902EBE2CEC2C3C884D88F7
:100AF0000DE010E030E4C32E3CE9D32EE6E1F1E056
:100B0000119281E0E633F807D9F79801245F3F4F4F
:100B1000852D6F2D462D50E00E945D049801275FC2
:100B20003F4F37FF02C020E030E0872D6F2D492D69
:100B300050E00E945D0498012A5F3F4F37FF02C0DA
:100B400020E030E08B2D6F2D4E2D50E00E945D0493
:100B500098012D5F3F4F37FF02C020E030E08A2D23
:100B60006F2D482D50E00E945D04980117FF02C0D0
:100B700020E030E0832D6F2D442D50E00E945D0475
:100B800086E191E00E94AB03C6010197F1F70150A5
:100B900010408FEF033F180709F0B0CFCF91DF91DE
:100BA0001F910F91FF90EF90DF90CF90BF90AF908B
:100BB0009F908F907F906F905F904F903F9008959F
:100BC0002F923F924F925F926F927F928F929F925D
:100BD000AF92BF92CF92DF92EF92FF920F931F934B
:100BE000DF93CF93CDB7DEB7D82E362E442E522EBC
:100BF000602E7E2C9C2CCA2C2E8800E010E050E445
:100C0000A52E5CE9B52E38C0F70111927F01F6E3FD
:100C1000EF16F1E0FF06C1F7832D6D2D442D50E056
:100C200098010E945D04852D6D2D462D50E09801A0
:100C30000E945D04872D6D2D492D50E098010E9482
:100C40005D048C2D6D2D482D50E098010E945D04AF
:100C50008D896D2D422D50E098010E945D04C701E1
:100C600080970E94AB03C5010197F1F70150104036
:100C70008FEF063F180729F046E1E42E41E0F42EFD
:100C8000C3CFCF91DF911F910F91FF90EF90DF9035
:100C9000CF90BF90AF909F908F907F906F905F901C
:100CA0004F903F902F9008952F923F924F925F92D6
:100CB0006F927F928F929F92AF92BF92CF92DF926C
:100CC000EF92FF920F931F93DF93CF93CDB7DEB7D1
:100CD000F82E362E442E522E602E7E2C9C2CEA2C82
:100CE0002E88CC24DD2400E010E060E4A62E6CE920
:100CF000B62EE6E1F1E0119281E0E633F807D9F78C
:100D00009801245F3F4F1216130614F420E030E0E0
:100D1000832D6F2D442D50E00E945D049801275FC4
:100D20003F4F1216130614F420E030E0852D6F2D8E
:100D3000462D50E00E945D0498012A5F3F4F121635
:100D4000130614F420E030E0872D6F2D492D50E07C
:100D50000E945D0498012D5F3F4F1216130614F494
:100D600020E030E08E2D6F2D482D50E00E945D0474
:100D70008D896F2D422D50E096010E945D0486E121
:100D800091E00E94AB03C5010197F1F701501040BB
:100D900068018FEF063E180709F0ABCFCF91DF91C6
:100DA0001F910F91FF90EF90DF90CF90BF90AF9089
:100DB0009F908F907F906F905F904F903F902F907B
:100DC00008955F926F927F928F929F92AF92BF929F
:100DD000CF92DF92EF92FF920F931F93282F362F1F
:100DE0006AE00E94BB08E82F10E3F12EF80E822F74
:100DF0000E94BB08592FB0E35B2E590E832F0E942F
:100E0000BB08282FA0E36A2E680E832F0E94BB0820
:100E1000F0E39F2E990E442341F474E1772E6BE1A9
:100E2000D62E5EE0B52E15E013C04CE7F42EFE0E74
:100E30003CE7532E550E8CE7682E620E0CE7902E81
:100E4000990E13E1712EBAE1DB2EADE0BA2E16E059
:100E500080E3F81619F0ECE7FE1611F4F0E2FF2E2D
:100E600000D0EDB7FEB79182D282812F6F2D40E086
:100E7000252D07E0EAE3EE2ECB2CA62C872C0E9432
:100E80005C0520E533EC0F900F9048EC50E0CA0170
:100E90000197F1F721503040D1F700D0EDB7FEB700
:100EA0009182D282812F6F2D40E0252D07E07AE3D9
:100EB000E72ECB2CA62C872C0E9454060F900F9067
:100EC0001F910F91FF90EF90DF90CF90BF90AF9068
:100ED0009F908F907F906F905F9008954F925F9258
:100EE0006F927F928F92AF92CF92EF92FF920F9379
:100EF0001F93CF93DF93482F262F6AE00E94BB08F1
:100F0000A0E3FA2EF80E842F0E94BB08192F105D63
:100F100083E0289F90011124F8E64F2EF0E05F2E29
:100F2000420E531EF201E490E9E66E2EE0E07E2EC2
:100F3000620E731EF301A490E901C659DF4FFE0152
:100F4000849100D0EDB7FEB781838BE1828385E089
:100F50006F2D40E0212F06E07FE0C72E55E1852E62
:100F60000E945C0528E53BE10F900F9048EC50E0B3
:100F7000CA010197F1F721503040D1F7F201E49016
:100F8000F301A490FE01849100D0EDB7FEB78183F8
:100F90008BE1828385E06F2D40E0212F06E03FE06A
:100FA000C32E95E1892E0E9454060F900F90DF9179
:100FB000CF911F910F91FF90EF90CF90AF908F90B6
:100FC0007F906F905F904F9008956F927F928F9275
:100FD0009F92AF92BF92CF92DF92EF92FF920F93C8
:100FE0001F93282F162F6AE00E94BB08F0E37F2E84
:100FF000780E822F0E94BB08E0E3DE2ED90E76E049
:10100000B72EB10E6CE0962E910E51E1652E610E59
:1010100047E1F42EF10E00D080E2EDB7FEB78183F8
:10102000F28285E0672D412F2D2D0B2D3BE7E32E1E
:10103000C92C93E4A92E862C0E945C0528E53BE18F
:101040000F900F9048EC50E0CA010197F1F7215042
:101050003040D1F700D080E2EDB7FEB78183F28255
:1010600085E0672D412F2D2D0B2D1BE7E12EC92C7F
:10107000B3E4AB2E862C0E9454060F900F901F9164
:101080000F91FF90EF90DF90CF90BF90AF909F9027
:101090008F907F906F900895DF92EF92FF920F9361
:1010A0001F930E9472030E9423046CEC7EE681E091
:1010B00090E028EA3BE942E050E00E94FF0188EE20
:1010C00093E028EC30E0F9013197F1F70197D9F777
:1010D00060910E0170910F018091100190911101AA
:1010E000E0900E01F0900F0100911001109111019C
:1010F00020E13EE040E050E00E94C708D22EC80147
:10110000B7012CE330E040E050E00E94C708CA017C
:10111000B9012CE330E040E050E00E94C7088D2D7B
:1011200040E00E94E10683E169E00E946E078FE1E2
:1011300065E00E94E507CCCF629FD001739FF0016C
:10114000829FE00DF11D649FE00DF11D929FF00D57
:10115000839FF00D749FF00D659FF00D9927729F8E
:10116000B00DE11DF91F639FB00DE11DF91FBD0119
:10117000CF0111240895991B79E004C0991F961797
:1011800008F0961B881F7A95C9F780950895A1E20B
:101190001A2EAA1BBB1BFD010DC0AA1FBB1FEE1FF1
:1011A000FF1FA217B307E407F50720F0A21BB30B3C
:1011B000E40BF50B661F771F881F991F1A9469F7B8
:1011C00060957095809590959B01AC01BD01CF0114
:0611D0000895F894FFCF22
:0E11D6001D1F1C1F1E1F1E1F1F1E1F1E1F0081
:00000001FF
